{
	"contracts/eventlogger.sol": {
		"EventLogger": {
			"abi": [
				{
					"anonymous": false,
					"inputs": [
						{
							"indexed": false,
							"internalType": "address",
							"name": "",
							"type": "address"
						},
						{
							"indexed": false,
							"internalType": "string",
							"name": "",
							"type": "string"
						}
					],
					"name": "Log",
					"type": "event"
				},
				{
					"inputs": [],
					"name": "logCaller",
					"outputs": [],
					"stateMutability": "nonpayable",
					"type": "function"
				}
			],
			"devdoc": {
				"kind": "dev",
				"methods": {},
				"version": 1
			},
			"evm": {
				"assembly": "    /* \"contracts/eventlogger.sol\":57:203  contract EventLogger {... */\n  mstore(0x40, 0x80)\n  callvalue\n  dup1\n  iszero\n  tag_1\n  jumpi\n  revert(0x00, 0x00)\ntag_1:\n  pop\n  dataSize(sub_0)\n  dup1\n  dataOffset(sub_0)\n  0x00\n  codecopy\n  0x00\n  return\nstop\n\nsub_0: assembly {\n        /* \"contracts/eventlogger.sol\":57:203  contract EventLogger {... */\n      mstore(0x40, 0x80)\n      callvalue\n      dup1\n      iszero\n      tag_1\n      jumpi\n      revert(0x00, 0x00)\n    tag_1:\n      pop\n      jumpi(tag_2, lt(calldatasize, 0x04))\n      shr(0xe0, calldataload(0x00))\n      dup1\n      0x73cd4836\n      eq\n      tag_3\n      jumpi\n    tag_2:\n      revert(0x00, 0x00)\n        /* \"contracts/eventlogger.sol\":120:201  function logCaller() external {... */\n    tag_3:\n      tag_4\n      tag_5\n      jump\t// in\n    tag_4:\n      stop\n    tag_5:\n        /* \"contracts/eventlogger.sol\":165:194  Log(msg.sender,\"Hello World\") */\n      0x0738f4da267a110d810e6e89fc59e46be6de0c37b1d5cd559b267dc3688e74e0\n        /* \"contracts/eventlogger.sol\":169:179  msg.sender */\n      caller\n        /* \"contracts/eventlogger.sol\":165:194  Log(msg.sender,\"Hello World\") */\n      mload(0x40)\n      tag_7\n      swap2\n      swap1\n      tag_8\n      jump\t// in\n    tag_7:\n      mload(0x40)\n      dup1\n      swap2\n      sub\n      swap1\n      log1\n        /* \"contracts/eventlogger.sol\":120:201  function logCaller() external {... */\n      jump\t// out\n        /* \"#utility.yul\":7:133   */\n    tag_9:\n        /* \"#utility.yul\":44:51   */\n      0x00\n        /* \"#utility.yul\":84:126   */\n      0xffffffffffffffffffffffffffffffffffffffff\n        /* \"#utility.yul\":77:82   */\n      dup3\n        /* \"#utility.yul\":73:127   */\n      and\n        /* \"#utility.yul\":62:127   */\n      swap1\n      pop\n        /* \"#utility.yul\":7:133   */\n      swap2\n      swap1\n      pop\n      jump\t// out\n        /* \"#utility.yul\":139:235   */\n    tag_10:\n        /* \"#utility.yul\":176:183   */\n      0x00\n        /* \"#utility.yul\":205:229   */\n      tag_18\n        /* \"#utility.yul\":223:228   */\n      dup3\n        /* \"#utility.yul\":205:229   */\n      tag_9\n      jump\t// in\n    tag_18:\n        /* \"#utility.yul\":194:229   */\n      swap1\n      pop\n        /* \"#utility.yul\":139:235   */\n      swap2\n      swap1\n      pop\n      jump\t// out\n        /* \"#utility.yul\":241:359   */\n    tag_11:\n        /* \"#utility.yul\":328:352   */\n      tag_20\n        /* \"#utility.yul\":346:351   */\n      dup2\n        /* \"#utility.yul\":328:352   */\n      tag_10\n      jump\t// in\n    tag_20:\n        /* \"#utility.yul\":323:326   */\n      dup3\n        /* \"#utility.yul\":316:353   */\n      mstore\n        /* \"#utility.yul\":241:359   */\n      pop\n      pop\n      jump\t// out\n        /* \"#utility.yul\":365:534   */\n    tag_12:\n        /* \"#utility.yul\":449:460   */\n      0x00\n        /* \"#utility.yul\":483:489   */\n      dup3\n        /* \"#utility.yul\":478:481   */\n      dup3\n        /* \"#utility.yul\":471:490   */\n      mstore\n        /* \"#utility.yul\":523:527   */\n      0x20\n        /* \"#utility.yul\":518:521   */\n      dup3\n        /* \"#utility.yul\":514:528   */\n      add\n        /* \"#utility.yul\":499:528   */\n      swap1\n      pop\n        /* \"#utility.yul\":365:534   */\n      swap3\n      swap2\n      pop\n      pop\n      jump\t// out\n        /* \"#utility.yul\":540:701   */\n    tag_13:\n        /* \"#utility.yul\":680:693   */\n      0x48656c6c6f20576f726c64000000000000000000000000000000000000000000\n        /* \"#utility.yul\":676:677   */\n      0x00\n        /* \"#utility.yul\":668:674   */\n      dup3\n        /* \"#utility.yul\":664:678   */\n      add\n        /* \"#utility.yul\":657:694   */\n      mstore\n        /* \"#utility.yul\":540:701   */\n      pop\n      jump\t// out\n        /* \"#utility.yul\":707:1073   */\n    tag_14:\n        /* \"#utility.yul\":849:852   */\n      0x00\n        /* \"#utility.yul\":870:937   */\n      tag_24\n        /* \"#utility.yul\":934:936   */\n      0x0b\n        /* \"#utility.yul\":929:932   */\n      dup4\n        /* \"#utility.yul\":870:937   */\n      tag_12\n      jump\t// in\n    tag_24:\n        /* \"#utility.yul\":863:937   */\n      swap2\n      pop\n        /* \"#utility.yul\":946:1039   */\n      tag_25\n        /* \"#utility.yul\":1035:1038   */\n      dup3\n        /* \"#utility.yul\":946:1039   */\n      tag_13\n      jump\t// in\n    tag_25:\n        /* \"#utility.yul\":1064:1066   */\n      0x20\n        /* \"#utility.yul\":1059:1062   */\n      dup3\n        /* \"#utility.yul\":1055:1067   */\n      add\n        /* \"#utility.yul\":1048:1067   */\n      swap1\n      pop\n        /* \"#utility.yul\":707:1073   */\n      swap2\n      swap1\n      pop\n      jump\t// out\n        /* \"#utility.yul\":1079:1608   */\n    tag_8:\n        /* \"#utility.yul\":1273:1277   */\n      0x00\n        /* \"#utility.yul\":1311:1313   */\n      0x40\n        /* \"#utility.yul\":1300:1309   */\n      dup3\n        /* \"#utility.yul\":1296:1314   */\n      add\n        /* \"#utility.yul\":1288:1314   */\n      swap1\n      pop\n        /* \"#utility.yul\":1324:1395   */\n      tag_27\n        /* \"#utility.yul\":1392:1393   */\n      0x00\n        /* \"#utility.yul\":1381:1390   */\n      dup4\n        /* \"#utility.yul\":1377:1394   */\n      add\n        /* \"#utility.yul\":1368:1374   */\n      dup5\n        /* \"#utility.yul\":1324:1395   */\n      tag_11\n      jump\t// in\n    tag_27:\n        /* \"#utility.yul\":1442:1451   */\n      dup2\n        /* \"#utility.yul\":1436:1440   */\n      dup2\n        /* \"#utility.yul\":1432:1452   */\n      sub\n        /* \"#utility.yul\":1427:1429   */\n      0x20\n        /* \"#utility.yul\":1416:1425   */\n      dup4\n        /* \"#utility.yul\":1412:1430   */\n      add\n        /* \"#utility.yul\":1405:1453   */\n      mstore\n        /* \"#utility.yul\":1470:1601   */\n      tag_28\n        /* \"#utility.yul\":1596:1600   */\n      dup2\n        /* \"#utility.yul\":1470:1601   */\n      tag_14\n      jump\t// in\n    tag_28:\n        /* \"#utility.yul\":1462:1601   */\n      swap1\n      pop\n        /* \"#utility.yul\":1079:1608   */\n      swap3\n      swap2\n      pop\n      pop\n      jump\t// out\n\n    auxdata: 0xa264697066735822122015f55fc96eabca5824f6b42c787b8665e10b6410d129f3aad84d97447e114e9b64736f6c634300081e0033\n}\n",
				"bytecode": {
					"linkReferences": {},
					"object": "6080604052348015600e575f5ffd5b5061016b8061001c5f395ff3fe608060405234801561000f575f5ffd5b5060043610610029575f3560e01c806373cd48361461002d575b5f5ffd5b610035610037565b005b7f0738f4da267a110d810e6e89fc59e46be6de0c37b1d5cd559b267dc3688e74e0336040516100669190610109565b60405180910390a1565b5f73ffffffffffffffffffffffffffffffffffffffff82169050919050565b5f61009982610070565b9050919050565b6100a98161008f565b82525050565b5f82825260208201905092915050565b7f48656c6c6f20576f726c640000000000000000000000000000000000000000005f82015250565b5f6100f3600b836100af565b91506100fe826100bf565b602082019050919050565b5f60408201905061011c5f8301846100a0565b818103602083015261012d816100e7565b90509291505056fea264697066735822122015f55fc96eabca5824f6b42c787b8665e10b6410d129f3aad84d97447e114e9b64736f6c634300081e0033",
					"opcodes": "PUSH1 0x80 PUSH1 0x40 MSTORE CALLVALUE DUP1 ISZERO PUSH1 0xE JUMPI PUSH0 PUSH0 REVERT JUMPDEST POP PUSH2 0x16B DUP1 PUSH2 0x1C PUSH0 CODECOPY PUSH0 RETURN INVALID PUSH1 0x80 PUSH1 0x40 MSTORE CALLVALUE DUP1 ISZERO PUSH2 0xF JUMPI PUSH0 PUSH0 REVERT JUMPDEST POP PUSH1 0x4 CALLDATASIZE LT PUSH2 0x29 JUMPI PUSH0 CALLDATALOAD PUSH1 0xE0 SHR DUP1 PUSH4 0x73CD4836 EQ PUSH2 0x2D JUMPI JUMPDEST PUSH0 PUSH0 REVERT JUMPDEST PUSH2 0x35 PUSH2 0x37 JUMP JUMPDEST STOP JUMPDEST PUSH32 0x738F4DA267A110D810E6E89FC59E46BE6DE0C37B1D5CD559B267DC3688E74E0 CALLER PUSH1 0x40 MLOAD PUSH2 0x66 SWAP2 SWAP1 PUSH2 0x109 JUMP JUMPDEST PUSH1 0x40 MLOAD DUP1 SWAP2 SUB SWAP1 LOG1 JUMP JUMPDEST PUSH0 PUSH20 0xFFFFFFFFFFFFFFFFFFFFFFFFFFFFFFFFFFFFFFFF DUP3 AND SWAP1 POP SWAP2 SWAP1 POP JUMP JUMPDEST PUSH0 PUSH2 0x99 DUP3 PUSH2 0x70 JUMP JUMPDEST SWAP1 POP SWAP2 SWAP1 POP JUMP JUMPDEST PUSH2 0xA9 DUP2 PUSH2 0x8F JUMP JUMPDEST DUP3 MSTORE POP POP JUMP JUMPDEST PUSH0 DUP3 DUP3 MSTORE PUSH1 0x20 DUP3 ADD SWAP1 POP SWAP3 SWAP2 POP POP JUMP JUMPDEST PUSH32 0x48656C6C6F20576F726C64000000000000000000000000000000000000000000 PUSH0 DUP3 ADD MSTORE POP JUMP JUMPDEST PUSH0 PUSH2 0xF3 PUSH1 0xB DUP4 PUSH2 0xAF JUMP JUMPDEST SWAP2 POP PUSH2 0xFE DUP3 PUSH2 0xBF JUMP JUMPDEST PUSH1 0x20 DUP3 ADD SWAP1 POP SWAP2 SWAP1 POP JUMP JUMPDEST PUSH0 PUSH1 0x40 DUP3 ADD SWAP1 POP PUSH2 0x11C PUSH0 DUP4 ADD DUP5 PUSH2 0xA0 JUMP JUMPDEST DUP2 DUP2 SUB PUSH1 0x20 DUP4 ADD MSTORE PUSH2 0x12D DUP2 PUSH2 0xE7 JUMP JUMPDEST SWAP1 POP SWAP3 SWAP2 POP POP JUMP INVALID LOG2 PUSH5 0x6970667358 0x22 SLT KECCAK256 ISZERO CREATE2 PUSH0 0xC9 PUSH15 0xABCA5824F6B42C787B8665E10B6410 DATALOADN 0x29F3 0xAA 0xD8 0x4D SWAP8 PREVRANDAO PUSH31 0x114E9B64736F6C634300081E00330000000000000000000000000000000000 "
				},
				"gasEstimates": {
					"creation": {
						"codeDepositCost": "72600",
						"executionCost": "121",
						"totalCost": "72721"
					},
					"external": {
						"logCaller()": "2323"
					}
				},
				"methodIdentifiers": {
					"logCaller()": "73cd4836"
				}
			},
			"storageLayout": {
				"storage": [],
				"types": null
			},
			"userdoc": {
				"kind": "user",
				"methods": {},
				"version": 1
			}
		}
	}
}