{
	"data": {
		"bytecode": {
			"linkReferences": {},
			"object": "608060405234801561000f575f5ffd5b50604051610c88380380610c888339818101604052810190610031919061034f565b806001908051906020019061004792919061004e565b5050610675565b828054828255905f5260205f20908101928215610094579160200282015b8281111561009357825182908161008391906105a6565b509160200191906001019061006c565b5b5090506100a191906100a5565b5090565b5b808211156100c4575f81816100bb91906100c8565b506001016100a6565b5090565b5080546100d4906103cd565b5f825580601f106100e55750610102565b601f0160209004905f5260205f20908101906101019190610105565b5b50565b5b8082111561011c575f815f905550600101610106565b5090565b5f604051905090565b5f5ffd5b5f5ffd5b5f5ffd5b5f601f19601f8301169050919050565b7f4e487b71000000000000000000000000000000000000000000000000000000005f52604160045260245ffd5b61017b82610135565b810181811067ffffffffffffffff8211171561019a57610199610145565b5b80604052505050565b5f6101ac610120565b90506101b88282610172565b919050565b5f67ffffffffffffffff8211156101d7576101d6610145565b5b602082029050602081019050919050565b5f5ffd5b5f5ffd5b5f67ffffffffffffffff82111561020a57610209610145565b5b61021382610135565b9050602081019050919050565b8281835e5f83830152505050565b5f61024061023b846101f0565b6101a3565b90508281526020810184848401111561025c5761025b6101ec565b5b610267848285610220565b509392505050565b5f82601f83011261028357610282610131565b5b815161029384826020860161022e565b91505092915050565b5f6102ae6102a9846101bd565b6101a3565b905080838252602082019050602084028301858111156102d1576102d06101e8565b5b835b8181101561031857805167ffffffffffffffff8111156102f6576102f5610131565b5b808601610303898261026f565b855260208501945050506020810190506102d3565b5050509392505050565b5f82601f83011261033657610335610131565b5b815161034684826020860161029c565b91505092915050565b5f6020828403121561036457610363610129565b5b5f82015167ffffffffffffffff8111156103815761038061012d565b5b61038d84828501610322565b91505092915050565b5f81519050919050565b7f4e487b71000000000000000000000000000000000000000000000000000000005f52602260045260245ffd5b5f60028204905060018216806103e457607f821691505b6020821081036103f7576103f66103a0565b5b50919050565b5f819050815f5260205f209050919050565b5f6020601f8301049050919050565b5f82821b905092915050565b5f600883026104597fffffffffffffffffffffffffffffffffffffffffffffffffffffffffffffffff8261041e565b610463868361041e565b95508019841693508086168417925050509392505050565b5f819050919050565b5f819050919050565b5f6104a76104a261049d8461047b565b610484565b61047b565b9050919050565b5f819050919050565b6104c08361048d565b6104d46104cc826104ae565b84845461042a565b825550505050565b5f5f905090565b6104eb6104dc565b6104f68184846104b7565b505050565b5b818110156105195761050e5f826104e3565b6001810190506104fc565b5050565b601f82111561055e5761052f816103fd565b6105388461040f565b81016020851015610547578190505b61055b6105538561040f565b8301826104fb565b50505b505050565b5f82821c905092915050565b5f61057e5f1984600802610563565b1980831691505092915050565b5f610596838361056f565b9150826002028217905092915050565b6105af82610396565b67ffffffffffffffff8111156105c8576105c7610145565b5b6105d282546103cd565b6105dd82828561051d565b5f60209050601f83116001811461060e575f84156105fc578287015190505b610606858261058b565b86555061066d565b601f19841661061c866103fd565b5f5b828110156106435784890151825560018201915060208501945060208101905061061e565b86831015610660578489015161065c601f89168261056f565b8355505b6001600288020188555050505b505050505050565b610606806106825f395ff3fe608060405234801561000f575f5ffd5b506004361061004a575f3560e01c80630d7677911461004e5780632a26e28f1461006a5780633ec604071461009a578063c4edc404146100ca575b5f5ffd5b61006860048036038101906100639190610376565b6100fa565b005b610084600480360381019061007f9190610376565b610131565b60405161009191906103d5565b60405180910390f35b6100b460048036038101906100af9190610418565b61015d565b6040516100c191906104a3565b60405180910390f35b6100e460048036038101906100df9190610376565b610203565b6040516100f191906103d5565b60405180910390f35b60015f8260405161010b91906104fd565b90815260200160405180910390205f8282546101279190610540565b9250508190555050565b5f818051602081018201805184825260208301602085012081835280955050505050505f915090505481565b6001818154811061016c575f80fd5b905f5260205f20015f915090508054610184906105a0565b80601f01602080910402602001604051908101604052809291908181526020018280546101b0906105a0565b80156101fb5780601f106101d2576101008083540402835291602001916101fb565b820191905f5260205f20905b8154815290600101906020018083116101de57829003601f168201915b505050505081565b5f5f8260405161021391906104fd565b9081526020016040518091039020549050919050565b5f604051905090565b5f5ffd5b5f5ffd5b5f5ffd5b5f5ffd5b5f601f19601f8301169050919050565b7f4e487b71000000000000000000000000000000000000000000000000000000005f52604160045260245ffd5b61028882610242565b810181811067ffffffffffffffff821117156102a7576102a6610252565b5b80604052505050565b5f6102b9610229565b90506102c5828261027f565b919050565b5f67ffffffffffffffff8211156102e4576102e3610252565b5b6102ed82610242565b9050602081019050919050565b828183375f83830152505050565b5f61031a610315846102ca565b6102b0565b9050828152602081018484840111156103365761033561023e565b5b6103418482856102fa565b509392505050565b5f82601f83011261035d5761035c61023a565b5b813561036d848260208601610308565b91505092915050565b5f6020828403121561038b5761038a610232565b5b5f82013567ffffffffffffffff8111156103a8576103a7610236565b5b6103b484828501610349565b91505092915050565b5f819050919050565b6103cf816103bd565b82525050565b5f6020820190506103e85f8301846103c6565b92915050565b6103f7816103bd565b8114610401575f5ffd5b50565b5f81359050610412816103ee565b92915050565b5f6020828403121561042d5761042c610232565b5b5f61043a84828501610404565b91505092915050565b5f81519050919050565b5f82825260208201905092915050565b8281835e5f83830152505050565b5f61047582610443565b61047f818561044d565b935061048f81856020860161045d565b61049881610242565b840191505092915050565b5f6020820190508181035f8301526104bb818461046b565b905092915050565b5f81905092915050565b5f6104d782610443565b6104e181856104c3565b93506104f181856020860161045d565b80840191505092915050565b5f61050882846104cd565b915081905092915050565b7f4e487b71000000000000000000000000000000000000000000000000000000005f52601160045260245ffd5b5f61054a826103bd565b9150610555836103bd565b925082820190508082111561056d5761056c610513565b5b92915050565b7f4e487b71000000000000000000000000000000000000000000000000000000005f52602260045260245ffd5b5f60028204905060018216806105b757607f821691505b6020821081036105ca576105c9610573565b5b5091905056fea2646970667358221220d2651fe2a51853150294ad57db8a2fb53825e645956e0e0be486fbe5486e3b8d64736f6c634300081e0033",
			"opcodes": "PUSH1 0x80 PUSH1 0x40 MSTORE CALLVALUE DUP1 ISZERO PUSH2 0xF JUMPI PUSH0 PUSH0 REVERT JUMPDEST POP PUSH1 0x40 MLOAD PUSH2 0xC88 CODESIZE SUB DUP1 PUSH2 0xC88 DUP4 CODECOPY DUP2 DUP2 ADD PUSH1 0x40 MSTORE DUP2 ADD SWAP1 PUSH2 0x31 SWAP2 SWAP1 PUSH2 0x34F JUMP JUMPDEST DUP1 PUSH1 0x1 SWAP1 DUP1 MLOAD SWAP1 PUSH1 0x20 ADD SWAP1 PUSH2 0x47 SWAP3 SWAP2 SWAP1 PUSH2 0x4E JUMP JUMPDEST POP POP PUSH2 0x675 JUMP JUMPDEST DUP3 DUP1 SLOAD DUP3 DUP3 SSTORE SWAP1 PUSH0 MSTORE PUSH1 0x20 PUSH0 KECCAK256 SWAP1 DUP2 ADD SWAP3 DUP3 ISZERO PUSH2 0x94 JUMPI SWAP2 PUSH1 0x20 MUL DUP3 ADD JUMPDEST DUP3 DUP2 GT ISZERO PUSH2 0x93 JUMPI DUP3 MLOAD DUP3 SWAP1 DUP2 PUSH2 0x83 SWAP2 SWAP1 PUSH2 0x5A6 JUMP JUMPDEST POP SWAP2 PUSH1 0x20 ADD SWAP2 SWAP1 PUSH1 0x1 ADD SWAP1 PUSH2 0x6C JUMP JUMPDEST JUMPDEST POP SWAP1 POP PUSH2 0xA1 SWAP2 SWAP1 PUSH2 0xA5 JUMP JUMPDEST POP SWAP1 JUMP JUMPDEST JUMPDEST DUP1 DUP3 GT ISZERO PUSH2 0xC4 JUMPI PUSH0 DUP2 DUP2 PUSH2 0xBB SWAP2 SWAP1 PUSH2 0xC8 JUMP JUMPDEST POP PUSH1 0x1 ADD PUSH2 0xA6 JUMP JUMPDEST POP SWAP1 JUMP JUMPDEST POP DUP1 SLOAD PUSH2 0xD4 SWAP1 PUSH2 0x3CD JUMP JUMPDEST PUSH0 DUP3 SSTORE DUP1 PUSH1 0x1F LT PUSH2 0xE5 JUMPI POP PUSH2 0x102 JUMP JUMPDEST PUSH1 0x1F ADD PUSH1 0x20 SWAP1 DIV SWAP1 PUSH0 MSTORE PUSH1 0x20 PUSH0 KECCAK256 SWAP1 DUP2 ADD SWAP1 PUSH2 0x101 SWAP2 SWAP1 PUSH2 0x105 JUMP JUMPDEST JUMPDEST POP JUMP JUMPDEST JUMPDEST DUP1 DUP3 GT ISZERO PUSH2 0x11C JUMPI PUSH0 DUP2 PUSH0 SWAP1 SSTORE POP PUSH1 0x1 ADD PUSH2 0x106 JUMP JUMPDEST POP SWAP1 JUMP JUMPDEST PUSH0 PUSH1 0x40 MLOAD SWAP1 POP SWAP1 JUMP JUMPDEST PUSH0 PUSH0 REVERT JUMPDEST PUSH0 PUSH0 REVERT JUMPDEST PUSH0 PUSH0 REVERT JUMPDEST PUSH0 PUSH1 0x1F NOT PUSH1 0x1F DUP4 ADD AND SWAP1 POP SWAP2 SWAP1 POP JUMP JUMPDEST PUSH32 0x4E487B7100000000000000000000000000000000000000000000000000000000 PUSH0 MSTORE PUSH1 0x41 PUSH1 0x4 MSTORE PUSH1 0x24 PUSH0 REVERT JUMPDEST PUSH2 0x17B DUP3 PUSH2 0x135 JUMP JUMPDEST DUP2 ADD DUP2 DUP2 LT PUSH8 0xFFFFFFFFFFFFFFFF DUP3 GT OR ISZERO PUSH2 0x19A JUMPI PUSH2 0x199 PUSH2 0x145 JUMP JUMPDEST JUMPDEST DUP1 PUSH1 0x40 MSTORE POP POP POP JUMP JUMPDEST PUSH0 PUSH2 0x1AC PUSH2 0x120 JUMP JUMPDEST SWAP1 POP PUSH2 0x1B8 DUP3 DUP3 PUSH2 0x172 JUMP JUMPDEST SWAP2 SWAP1 POP JUMP JUMPDEST PUSH0 PUSH8 0xFFFFFFFFFFFFFFFF DUP3 GT ISZERO PUSH2 0x1D7 JUMPI PUSH2 0x1D6 PUSH2 0x145 JUMP JUMPDEST JUMPDEST PUSH1 0x20 DUP3 MUL SWAP1 POP PUSH1 0x20 DUP2 ADD SWAP1 POP SWAP2 SWAP1 POP JUMP JUMPDEST PUSH0 PUSH0 REVERT JUMPDEST PUSH0 PUSH0 REVERT JUMPDEST PUSH0 PUSH8 0xFFFFFFFFFFFFFFFF DUP3 GT ISZERO PUSH2 0x20A JUMPI PUSH2 0x209 PUSH2 0x145 JUMP JUMPDEST JUMPDEST PUSH2 0x213 DUP3 PUSH2 0x135 JUMP JUMPDEST SWAP1 POP PUSH1 0x20 DUP2 ADD SWAP1 POP SWAP2 SWAP1 POP JUMP JUMPDEST DUP3 DUP2 DUP4 MCOPY PUSH0 DUP4 DUP4 ADD MSTORE POP POP POP JUMP JUMPDEST PUSH0 PUSH2 0x240 PUSH2 0x23B DUP5 PUSH2 0x1F0 JUMP JUMPDEST PUSH2 0x1A3 JUMP JUMPDEST SWAP1 POP DUP3 DUP2 MSTORE PUSH1 0x20 DUP2 ADD DUP5 DUP5 DUP5 ADD GT ISZERO PUSH2 0x25C JUMPI PUSH2 0x25B PUSH2 0x1EC JUMP JUMPDEST JUMPDEST PUSH2 0x267 DUP5 DUP3 DUP6 PUSH2 0x220 JUMP JUMPDEST POP SWAP4 SWAP3 POP POP POP JUMP JUMPDEST PUSH0 DUP3 PUSH1 0x1F DUP4 ADD SLT PUSH2 0x283 JUMPI PUSH2 0x282 PUSH2 0x131 JUMP JUMPDEST JUMPDEST DUP2 MLOAD PUSH2 0x293 DUP5 DUP3 PUSH1 0x20 DUP7 ADD PUSH2 0x22E JUMP JUMPDEST SWAP2 POP POP SWAP3 SWAP2 POP POP JUMP JUMPDEST PUSH0 PUSH2 0x2AE PUSH2 0x2A9 DUP5 PUSH2 0x1BD JUMP JUMPDEST PUSH2 0x1A3 JUMP JUMPDEST SWAP1 POP DUP1 DUP4 DUP3 MSTORE PUSH1 0x20 DUP3 ADD SWAP1 POP PUSH1 0x20 DUP5 MUL DUP4 ADD DUP6 DUP2 GT ISZERO PUSH2 0x2D1 JUMPI PUSH2 0x2D0 PUSH2 0x1E8 JUMP JUMPDEST JUMPDEST DUP4 JUMPDEST DUP2 DUP2 LT ISZERO PUSH2 0x318 JUMPI DUP1 MLOAD PUSH8 0xFFFFFFFFFFFFFFFF DUP2 GT ISZERO PUSH2 0x2F6 JUMPI PUSH2 0x2F5 PUSH2 0x131 JUMP JUMPDEST JUMPDEST DUP1 DUP7 ADD PUSH2 0x303 DUP10 DUP3 PUSH2 0x26F JUMP JUMPDEST DUP6 MSTORE PUSH1 0x20 DUP6 ADD SWAP5 POP POP POP PUSH1 0x20 DUP2 ADD SWAP1 POP PUSH2 0x2D3 JUMP JUMPDEST POP POP POP SWAP4 SWAP3 POP POP POP JUMP JUMPDEST PUSH0 DUP3 PUSH1 0x1F DUP4 ADD SLT PUSH2 0x336 JUMPI PUSH2 0x335 PUSH2 0x131 JUMP JUMPDEST JUMPDEST DUP2 MLOAD PUSH2 0x346 DUP5 DUP3 PUSH1 0x20 DUP7 ADD PUSH2 0x29C JUMP JUMPDEST SWAP2 POP POP SWAP3 SWAP2 POP POP JUMP JUMPDEST PUSH0 PUSH1 0x20 DUP3 DUP5 SUB SLT ISZERO PUSH2 0x364 JUMPI PUSH2 0x363 PUSH2 0x129 JUMP JUMPDEST JUMPDEST PUSH0 DUP3 ADD MLOAD PUSH8 0xFFFFFFFFFFFFFFFF DUP2 GT ISZERO PUSH2 0x381 JUMPI PUSH2 0x380 PUSH2 0x12D JUMP JUMPDEST JUMPDEST PUSH2 0x38D DUP5 DUP3 DUP6 ADD PUSH2 0x322 JUMP JUMPDEST SWAP2 POP POP SWAP3 SWAP2 POP POP JUMP JUMPDEST PUSH0 DUP2 MLOAD SWAP1 POP SWAP2 SWAP1 POP JUMP JUMPDEST PUSH32 0x4E487B7100000000000000000000000000000000000000000000000000000000 PUSH0 MSTORE PUSH1 0x22 PUSH1 0x4 MSTORE PUSH1 0x24 PUSH0 REVERT JUMPDEST PUSH0 PUSH1 0x2 DUP3 DIV SWAP1 POP PUSH1 0x1 DUP3 AND DUP1 PUSH2 0x3E4 JUMPI PUSH1 0x7F DUP3 AND SWAP2 POP JUMPDEST PUSH1 0x20 DUP3 LT DUP2 SUB PUSH2 0x3F7 JUMPI PUSH2 0x3F6 PUSH2 0x3A0 JUMP JUMPDEST JUMPDEST POP SWAP2 SWAP1 POP JUMP JUMPDEST PUSH0 DUP2 SWAP1 POP DUP2 PUSH0 MSTORE PUSH1 0x20 PUSH0 KECCAK256 SWAP1 POP SWAP2 SWAP1 POP JUMP JUMPDEST PUSH0 PUSH1 0x20 PUSH1 0x1F DUP4 ADD DIV SWAP1 POP SWAP2 SWAP1 POP JUMP JUMPDEST PUSH0 DUP3 DUP3 SHL SWAP1 POP SWAP3 SWAP2 POP POP JUMP JUMPDEST PUSH0 PUSH1 0x8 DUP4 MUL PUSH2 0x459 PUSH32 0xFFFFFFFFFFFFFFFFFFFFFFFFFFFFFFFFFFFFFFFFFFFFFFFFFFFFFFFFFFFFFFFF DUP3 PUSH2 0x41E JUMP JUMPDEST PUSH2 0x463 DUP7 DUP4 PUSH2 0x41E JUMP JUMPDEST SWAP6 POP DUP1 NOT DUP5 AND SWAP4 POP DUP1 DUP7 AND DUP5 OR SWAP3 POP POP POP SWAP4 SWAP3 POP POP POP JUMP JUMPDEST PUSH0 DUP2 SWAP1 POP SWAP2 SWAP1 POP JUMP JUMPDEST PUSH0 DUP2 SWAP1 POP SWAP2 SWAP1 POP JUMP JUMPDEST PUSH0 PUSH2 0x4A7 PUSH2 0x4A2 PUSH2 0x49D DUP5 PUSH2 0x47B JUMP JUMPDEST PUSH2 0x484 JUMP JUMPDEST PUSH2 0x47B JUMP JUMPDEST SWAP1 POP SWAP2 SWAP1 POP JUMP JUMPDEST PUSH0 DUP2 SWAP1 POP SWAP2 SWAP1 POP JUMP JUMPDEST PUSH2 0x4C0 DUP4 PUSH2 0x48D JUMP JUMPDEST PUSH2 0x4D4 PUSH2 0x4CC DUP3 PUSH2 0x4AE JUMP JUMPDEST DUP5 DUP5 SLOAD PUSH2 0x42A JUMP JUMPDEST DUP3 SSTORE POP POP POP POP JUMP JUMPDEST PUSH0 PUSH0 SWAP1 POP SWAP1 JUMP JUMPDEST PUSH2 0x4EB PUSH2 0x4DC JUMP JUMPDEST PUSH2 0x4F6 DUP2 DUP5 DUP5 PUSH2 0x4B7 JUMP JUMPDEST POP POP POP JUMP JUMPDEST JUMPDEST DUP2 DUP2 LT ISZERO PUSH2 0x519 JUMPI PUSH2 0x50E PUSH0 DUP3 PUSH2 0x4E3 JUMP JUMPDEST PUSH1 0x1 DUP2 ADD SWAP1 POP PUSH2 0x4FC JUMP JUMPDEST POP POP JUMP JUMPDEST PUSH1 0x1F DUP3 GT ISZERO PUSH2 0x55E JUMPI PUSH2 0x52F DUP2 PUSH2 0x3FD JUMP JUMPDEST PUSH2 0x538 DUP5 PUSH2 0x40F JUMP JUMPDEST DUP2 ADD PUSH1 0x20 DUP6 LT ISZERO PUSH2 0x547 JUMPI DUP2 SWAP1 POP JUMPDEST PUSH2 0x55B PUSH2 0x553 DUP6 PUSH2 0x40F JUMP JUMPDEST DUP4 ADD DUP3 PUSH2 0x4FB JUMP JUMPDEST POP POP JUMPDEST POP POP POP JUMP JUMPDEST PUSH0 DUP3 DUP3 SHR SWAP1 POP SWAP3 SWAP2 POP POP JUMP JUMPDEST PUSH0 PUSH2 0x57E PUSH0 NOT DUP5 PUSH1 0x8 MUL PUSH2 0x563 JUMP JUMPDEST NOT DUP1 DUP4 AND SWAP2 POP POP SWAP3 SWAP2 POP POP JUMP JUMPDEST PUSH0 PUSH2 0x596 DUP4 DUP4 PUSH2 0x56F JUMP JUMPDEST SWAP2 POP DUP3 PUSH1 0x2 MUL DUP3 OR SWAP1 POP SWAP3 SWAP2 POP POP JUMP JUMPDEST PUSH2 0x5AF DUP3 PUSH2 0x396 JUMP JUMPDEST PUSH8 0xFFFFFFFFFFFFFFFF DUP2 GT ISZERO PUSH2 0x5C8 JUMPI PUSH2 0x5C7 PUSH2 0x145 JUMP JUMPDEST JUMPDEST PUSH2 0x5D2 DUP3 SLOAD PUSH2 0x3CD JUMP JUMPDEST PUSH2 0x5DD DUP3 DUP3 DUP6 PUSH2 0x51D JUMP JUMPDEST PUSH0 PUSH1 0x20 SWAP1 POP PUSH1 0x1F DUP4 GT PUSH1 0x1 DUP2 EQ PUSH2 0x60E JUMPI PUSH0 DUP5 ISZERO PUSH2 0x5FC JUMPI DUP3 DUP8 ADD MLOAD SWAP1 POP JUMPDEST PUSH2 0x606 DUP6 DUP3 PUSH2 0x58B JUMP JUMPDEST DUP7 SSTORE POP PUSH2 0x66D JUMP JUMPDEST PUSH1 0x1F NOT DUP5 AND PUSH2 0x61C DUP7 PUSH2 0x3FD JUMP JUMPDEST PUSH0 JUMPDEST DUP3 DUP2 LT ISZERO PUSH2 0x643 JUMPI DUP5 DUP10 ADD MLOAD DUP3 SSTORE PUSH1 0x1 DUP3 ADD SWAP2 POP PUSH1 0x20 DUP6 ADD SWAP5 POP PUSH1 0x20 DUP2 ADD SWAP1 POP PUSH2 0x61E JUMP JUMPDEST DUP7 DUP4 LT ISZERO PUSH2 0x660 JUMPI DUP5 DUP10 ADD MLOAD PUSH2 0x65C PUSH1 0x1F DUP10 AND DUP3 PUSH2 0x56F JUMP JUMPDEST DUP4 SSTORE POP JUMPDEST PUSH1 0x1 PUSH1 0x2 DUP9 MUL ADD DUP9 SSTORE POP POP POP JUMPDEST POP POP POP POP POP POP JUMP JUMPDEST PUSH2 0x606 DUP1 PUSH2 0x682 PUSH0 CODECOPY PUSH0 RETURN INVALID PUSH1 0x80 PUSH1 0x40 MSTORE CALLVALUE DUP1 ISZERO PUSH2 0xF JUMPI PUSH0 PUSH0 REVERT JUMPDEST POP PUSH1 0x4 CALLDATASIZE LT PUSH2 0x4A JUMPI PUSH0 CALLDATALOAD PUSH1 0xE0 SHR DUP1 PUSH4 0xD767791 EQ PUSH2 0x4E JUMPI DUP1 PUSH4 0x2A26E28F EQ PUSH2 0x6A JUMPI DUP1 PUSH4 0x3EC60407 EQ PUSH2 0x9A JUMPI DUP1 PUSH4 0xC4EDC404 EQ PUSH2 0xCA JUMPI JUMPDEST PUSH0 PUSH0 REVERT JUMPDEST PUSH2 0x68 PUSH1 0x4 DUP1 CALLDATASIZE SUB DUP2 ADD SWAP1 PUSH2 0x63 SWAP2 SWAP1 PUSH2 0x376 JUMP JUMPDEST PUSH2 0xFA JUMP JUMPDEST STOP JUMPDEST PUSH2 0x84 PUSH1 0x4 DUP1 CALLDATASIZE SUB DUP2 ADD SWAP1 PUSH2 0x7F SWAP2 SWAP1 PUSH2 0x376 JUMP JUMPDEST PUSH2 0x131 JUMP JUMPDEST PUSH1 0x40 MLOAD PUSH2 0x91 SWAP2 SWAP1 PUSH2 0x3D5 JUMP JUMPDEST PUSH1 0x40 MLOAD DUP1 SWAP2 SUB SWAP1 RETURN JUMPDEST PUSH2 0xB4 PUSH1 0x4 DUP1 CALLDATASIZE SUB DUP2 ADD SWAP1 PUSH2 0xAF SWAP2 SWAP1 PUSH2 0x418 JUMP JUMPDEST PUSH2 0x15D JUMP JUMPDEST PUSH1 0x40 MLOAD PUSH2 0xC1 SWAP2 SWAP1 PUSH2 0x4A3 JUMP JUMPDEST PUSH1 0x40 MLOAD DUP1 SWAP2 SUB SWAP1 RETURN JUMPDEST PUSH2 0xE4 PUSH1 0x4 DUP1 CALLDATASIZE SUB DUP2 ADD SWAP1 PUSH2 0xDF SWAP2 SWAP1 PUSH2 0x376 JUMP JUMPDEST PUSH2 0x203 JUMP JUMPDEST PUSH1 0x40 MLOAD PUSH2 0xF1 SWAP2 SWAP1 PUSH2 0x3D5 JUMP JUMPDEST PUSH1 0x40 MLOAD DUP1 SWAP2 SUB SWAP1 RETURN JUMPDEST PUSH1 0x1 PUSH0 DUP3 PUSH1 0x40 MLOAD PUSH2 0x10B SWAP2 SWAP1 PUSH2 0x4FD JUMP JUMPDEST SWAP1 DUP2 MSTORE PUSH1 0x20 ADD PUSH1 0x40 MLOAD DUP1 SWAP2 SUB SWAP1 KECCAK256 PUSH0 DUP3 DUP3 SLOAD PUSH2 0x127 SWAP2 SWAP1 PUSH2 0x540 JUMP JUMPDEST SWAP3 POP POP DUP2 SWAP1 SSTORE POP POP JUMP JUMPDEST PUSH0 DUP2 DUP1 MLOAD PUSH1 0x20 DUP2 ADD DUP3 ADD DUP1 MLOAD DUP5 DUP3 MSTORE PUSH1 0x20 DUP4 ADD PUSH1 0x20 DUP6 ADD KECCAK256 DUP2 DUP4 MSTORE DUP1 SWAP6 POP POP POP POP POP POP PUSH0 SWAP2 POP SWAP1 POP SLOAD DUP2 JUMP JUMPDEST PUSH1 0x1 DUP2 DUP2 SLOAD DUP2 LT PUSH2 0x16C JUMPI PUSH0 DUP1 REVERT JUMPDEST SWAP1 PUSH0 MSTORE PUSH1 0x20 PUSH0 KECCAK256 ADD PUSH0 SWAP2 POP SWAP1 POP DUP1 SLOAD PUSH2 0x184 SWAP1 PUSH2 0x5A0 JUMP JUMPDEST DUP1 PUSH1 0x1F ADD PUSH1 0x20 DUP1 SWAP2 DIV MUL PUSH1 0x20 ADD PUSH1 0x40 MLOAD SWAP1 DUP2 ADD PUSH1 0x40 MSTORE DUP1 SWAP3 SWAP2 SWAP1 DUP2 DUP2 MSTORE PUSH1 0x20 ADD DUP3 DUP1 SLOAD PUSH2 0x1B0 SWAP1 PUSH2 0x5A0 JUMP JUMPDEST DUP1 ISZERO PUSH2 0x1FB JUMPI DUP1 PUSH1 0x1F LT PUSH2 0x1D2 JUMPI PUSH2 0x100 DUP1 DUP4 SLOAD DIV MUL DUP4 MSTORE SWAP2 PUSH1 0x20 ADD SWAP2 PUSH2 0x1FB JUMP JUMPDEST DUP3 ADD SWAP2 SWAP1 PUSH0 MSTORE PUSH1 0x20 PUSH0 KECCAK256 SWAP1 JUMPDEST DUP2 SLOAD DUP2 MSTORE SWAP1 PUSH1 0x1 ADD SWAP1 PUSH1 0x20 ADD DUP1 DUP4 GT PUSH2 0x1DE JUMPI DUP3 SWAP1 SUB PUSH1 0x1F AND DUP3 ADD SWAP2 JUMPDEST POP POP POP POP POP DUP2 JUMP JUMPDEST PUSH0 PUSH0 DUP3 PUSH1 0x40 MLOAD PUSH2 0x213 SWAP2 SWAP1 PUSH2 0x4FD JUMP JUMPDEST SWAP1 DUP2 MSTORE PUSH1 0x20 ADD PUSH1 0x40 MLOAD DUP1 SWAP2 SUB SWAP1 KECCAK256 SLOAD SWAP1 POP SWAP2 SWAP1 POP JUMP JUMPDEST PUSH0 PUSH1 0x40 MLOAD SWAP1 POP SWAP1 JUMP JUMPDEST PUSH0 PUSH0 REVERT JUMPDEST PUSH0 PUSH0 REVERT JUMPDEST PUSH0 PUSH0 REVERT JUMPDEST PUSH0 PUSH0 REVERT JUMPDEST PUSH0 PUSH1 0x1F NOT PUSH1 0x1F DUP4 ADD AND SWAP1 POP SWAP2 SWAP1 POP JUMP JUMPDEST PUSH32 0x4E487B7100000000000000000000000000000000000000000000000000000000 PUSH0 MSTORE PUSH1 0x41 PUSH1 0x4 MSTORE PUSH1 0x24 PUSH0 REVERT JUMPDEST PUSH2 0x288 DUP3 PUSH2 0x242 JUMP JUMPDEST DUP2 ADD DUP2 DUP2 LT PUSH8 0xFFFFFFFFFFFFFFFF DUP3 GT OR ISZERO PUSH2 0x2A7 JUMPI PUSH2 0x2A6 PUSH2 0x252 JUMP JUMPDEST JUMPDEST DUP1 PUSH1 0x40 MSTORE POP POP POP JUMP JUMPDEST PUSH0 PUSH2 0x2B9 PUSH2 0x229 JUMP JUMPDEST SWAP1 POP PUSH2 0x2C5 DUP3 DUP3 PUSH2 0x27F JUMP JUMPDEST SWAP2 SWAP1 POP JUMP JUMPDEST PUSH0 PUSH8 0xFFFFFFFFFFFFFFFF DUP3 GT ISZERO PUSH2 0x2E4 JUMPI PUSH2 0x2E3 PUSH2 0x252 JUMP JUMPDEST JUMPDEST PUSH2 0x2ED DUP3 PUSH2 0x242 JUMP JUMPDEST SWAP1 POP PUSH1 0x20 DUP2 ADD SWAP1 POP SWAP2 SWAP1 POP JUMP JUMPDEST DUP3 DUP2 DUP4 CALLDATACOPY PUSH0 DUP4 DUP4 ADD MSTORE POP POP POP JUMP JUMPDEST PUSH0 PUSH2 0x31A PUSH2 0x315 DUP5 PUSH2 0x2CA JUMP JUMPDEST PUSH2 0x2B0 JUMP JUMPDEST SWAP1 POP DUP3 DUP2 MSTORE PUSH1 0x20 DUP2 ADD DUP5 DUP5 DUP5 ADD GT ISZERO PUSH2 0x336 JUMPI PUSH2 0x335 PUSH2 0x23E JUMP JUMPDEST JUMPDEST PUSH2 0x341 DUP5 DUP3 DUP6 PUSH2 0x2FA JUMP JUMPDEST POP SWAP4 SWAP3 POP POP POP JUMP JUMPDEST PUSH0 DUP3 PUSH1 0x1F DUP4 ADD SLT PUSH2 0x35D JUMPI PUSH2 0x35C PUSH2 0x23A JUMP JUMPDEST JUMPDEST DUP2 CALLDATALOAD PUSH2 0x36D DUP5 DUP3 PUSH1 0x20 DUP7 ADD PUSH2 0x308 JUMP JUMPDEST SWAP2 POP POP SWAP3 SWAP2 POP POP JUMP JUMPDEST PUSH0 PUSH1 0x20 DUP3 DUP5 SUB SLT ISZERO PUSH2 0x38B JUMPI PUSH2 0x38A PUSH2 0x232 JUMP JUMPDEST JUMPDEST PUSH0 DUP3 ADD CALLDATALOAD PUSH8 0xFFFFFFFFFFFFFFFF DUP2 GT ISZERO PUSH2 0x3A8 JUMPI PUSH2 0x3A7 PUSH2 0x236 JUMP JUMPDEST JUMPDEST PUSH2 0x3B4 DUP5 DUP3 DUP6 ADD PUSH2 0x349 JUMP JUMPDEST SWAP2 POP POP SWAP3 SWAP2 POP POP JUMP JUMPDEST PUSH0 DUP2 SWAP1 POP SWAP2 SWAP1 POP JUMP JUMPDEST PUSH2 0x3CF DUP2 PUSH2 0x3BD JUMP JUMPDEST DUP3 MSTORE POP POP JUMP JUMPDEST PUSH0 PUSH1 0x20 DUP3 ADD SWAP1 POP PUSH2 0x3E8 PUSH0 DUP4 ADD DUP5 PUSH2 0x3C6 JUMP JUMPDEST SWAP3 SWAP2 POP POP JUMP JUMPDEST PUSH2 0x3F7 DUP2 PUSH2 0x3BD JUMP JUMPDEST DUP2 EQ PUSH2 0x401 JUMPI PUSH0 PUSH0 REVERT JUMPDEST POP JUMP JUMPDEST PUSH0 DUP2 CALLDATALOAD SWAP1 POP PUSH2 0x412 DUP2 PUSH2 0x3EE JUMP JUMPDEST SWAP3 SWAP2 POP POP JUMP JUMPDEST PUSH0 PUSH1 0x20 DUP3 DUP5 SUB SLT ISZERO PUSH2 0x42D JUMPI PUSH2 0x42C PUSH2 0x232 JUMP JUMPDEST JUMPDEST PUSH0 PUSH2 0x43A DUP5 DUP3 DUP6 ADD PUSH2 0x404 JUMP JUMPDEST SWAP2 POP POP SWAP3 SWAP2 POP POP JUMP JUMPDEST PUSH0 DUP2 MLOAD SWAP1 POP SWAP2 SWAP1 POP JUMP JUMPDEST PUSH0 DUP3 DUP3 MSTORE PUSH1 0x20 DUP3 ADD SWAP1 POP SWAP3 SWAP2 POP POP JUMP JUMPDEST DUP3 DUP2 DUP4 MCOPY PUSH0 DUP4 DUP4 ADD MSTORE POP POP POP JUMP JUMPDEST PUSH0 PUSH2 0x475 DUP3 PUSH2 0x443 JUMP JUMPDEST PUSH2 0x47F DUP2 DUP6 PUSH2 0x44D JUMP JUMPDEST SWAP4 POP PUSH2 0x48F DUP2 DUP6 PUSH1 0x20 DUP7 ADD PUSH2 0x45D JUMP JUMPDEST PUSH2 0x498 DUP2 PUSH2 0x242 JUMP JUMPDEST DUP5 ADD SWAP2 POP POP SWAP3 SWAP2 POP POP JUMP JUMPDEST PUSH0 PUSH1 0x20 DUP3 ADD SWAP1 POP DUP2 DUP2 SUB PUSH0 DUP4 ADD MSTORE PUSH2 0x4BB DUP2 DUP5 PUSH2 0x46B JUMP JUMPDEST SWAP1 POP SWAP3 SWAP2 POP POP JUMP JUMPDEST PUSH0 DUP2 SWAP1 POP SWAP3 SWAP2 POP POP JUMP JUMPDEST PUSH0 PUSH2 0x4D7 DUP3 PUSH2 0x443 JUMP JUMPDEST PUSH2 0x4E1 DUP2 DUP6 PUSH2 0x4C3 JUMP JUMPDEST SWAP4 POP PUSH2 0x4F1 DUP2 DUP6 PUSH1 0x20 DUP7 ADD PUSH2 0x45D JUMP JUMPDEST DUP1 DUP5 ADD SWAP2 POP POP SWAP3 SWAP2 POP POP JUMP JUMPDEST PUSH0 PUSH2 0x508 DUP3 DUP5 PUSH2 0x4CD JUMP JUMPDEST SWAP2 POP DUP2 SWAP1 POP SWAP3 SWAP2 POP POP JUMP JUMPDEST PUSH32 0x4E487B7100000000000000000000000000000000000000000000000000000000 PUSH0 MSTORE PUSH1 0x11 PUSH1 0x4 MSTORE PUSH1 0x24 PUSH0 REVERT JUMPDEST PUSH0 PUSH2 0x54A DUP3 PUSH2 0x3BD JUMP JUMPDEST SWAP2 POP PUSH2 0x555 DUP4 PUSH2 0x3BD JUMP JUMPDEST SWAP3 POP DUP3 DUP3 ADD SWAP1 POP DUP1 DUP3 GT ISZERO PUSH2 0x56D JUMPI PUSH2 0x56C PUSH2 0x513 JUMP JUMPDEST JUMPDEST SWAP3 SWAP2 POP POP JUMP JUMPDEST PUSH32 0x4E487B7100000000000000000000000000000000000000000000000000000000 PUSH0 MSTORE PUSH1 0x22 PUSH1 0x4 MSTORE PUSH1 0x24 PUSH0 REVERT JUMPDEST PUSH0 PUSH1 0x2 DUP3 DIV SWAP1 POP PUSH1 0x1 DUP3 AND DUP1 PUSH2 0x5B7 JUMPI PUSH1 0x7F DUP3 AND SWAP2 POP JUMPDEST PUSH1 0x20 DUP3 LT DUP2 SUB PUSH2 0x5CA JUMPI PUSH2 0x5C9 PUSH2 0x573 JUMP JUMPDEST JUMPDEST POP SWAP2 SWAP1 POP JUMP INVALID LOG2 PUSH5 0x6970667358 0x22 SLT KECCAK256 0xD2 PUSH6 0x1FE2A5185315 MUL SWAP5 0xAD JUMPI 0xDB DUP11 0x2F 0xB5 CODESIZE 0x25 DUPN 0x45 SWAP6 PUSH15 0xE0BE486FBE5486E3B8D64736F6C63 NUMBER STOP ADDMOD 0x1E STOP CALLER "
		},
		"gasEstimates": {
			"creation": {
				"codeDepositCost": "308400",
				"executionCost": "infinite",
				"totalCost": "infinite"
			},
			"external": {
				"canditates(uint256)": "infinite",
				"totalVotesForCandidate(string)": "infinite",
				"voteForCandidates(string)": "infinite",
				"voteReceived(string)": "infinite"
			}
		},
		"methodIdentifiers": {
			"canditates(uint256)": "3ec60407",
			"totalVotesForCandidate(string)": "c4edc404",
			"voteForCandidates(string)": "0d767791",
			"voteReceived(string)": "2a26e28f"
		}
	},
	"abi": [
		{
			"inputs": [
				{
					"internalType": "string[]",
					"name": "canditateNames",
					"type": "string[]"
				}
			],
			"stateMutability": "nonpayable",
			"type": "constructor"
		},
		{
			"inputs": [
				{
					"internalType": "uint256",
					"name": "",
					"type": "uint256"
				}
			],
			"name": "canditates",
			"outputs": [
				{
					"internalType": "string",
					"name": "",
					"type": "string"
				}
			],
			"stateMutability": "view",
			"type": "function"
		},
		{
			"inputs": [
				{
					"internalType": "string",
					"name": "canditate",
					"type": "string"
				}
			],
			"name": "totalVotesForCandidate",
			"outputs": [
				{
					"internalType": "uint256",
					"name": "",
					"type": "uint256"
				}
			],
			"stateMutability": "view",
			"type": "function"
		},
		{
			"inputs": [
				{
					"internalType": "string",
					"name": "canditate",
					"type": "string"
				}
			],
			"name": "voteForCandidates",
			"outputs": [],
			"stateMutability": "nonpayable",
			"type": "function"
		},
		{
			"inputs": [
				{
					"internalType": "string",
					"name": "",
					"type": "string"
				}
			],
			"name": "voteReceived",
			"outputs": [
				{
					"internalType": "uint256",
					"name": "",
					"type": "uint256"
				}
			],
			"stateMutability": "view",
			"type": "function"
		}
	]
}